IP 150.89.212.14.53940 > 150.89.233.9.80: Flags [S], seq 1387355792, win 29200, options [mss 1460,sackOK,TS val 717072 ecr 0,nop,wscale 7], length 0
	0x0000:  cc4e 249c f500 c8cb b82a e679 0800 4500  .N$......*.y..E.
	0x0010:  003c af80 4000 4006 a170 9659 d40e 9659  .<..@.@..p.Y...Y
	0x0020:  e909 d2b4 0050 52b1 5e90 0000 0000 a002  .....PR.^.......
	0x0030:  7210 e9f9 0000 0204 05b4 0402 080a 000a  r...............
	0x0040:  f110 0000 0000 0103 0307                 ..........
IP 150.89.233.9.80 > 150.89.212.14.53940: Flags [S.], seq 1659606695, ack 1387355793, win 28960, options [mss 1460,sackOK,TS val 5442920 ecr 717072,nop,wscale 7], length 0
	0x0000:  c8cb b82a e679 cc4e 249c f500 0800 4500  ...*.y.N$.....E.
	0x0010:  003c 0000 4000 3f06 51f1 9659 e909 9659  .<..@.?.Q..Y...Y
	0x0020:  d40e 0050 d2b4 62eb 96a7 52b1 5e91 a012  ...P..b...R.^...
	0x0030:  7120 7054 0000 0204 05b4 0402 080a 0053  q.pT...........S
	0x0040:  0d68 000a f110 0103 0307                 .h........
IP 150.89.212.14.53940 > 150.89.233.9.80: Flags [.], ack 1, win 229, options [nop,nop,TS val 717072 ecr 5442920], length 0
	0x0000:  cc4e 249c f500 c8cb b82a e679 0800 4500  .N$......*.y..E.
	0x0010:  0034 af81 4000 4006 a177 9659 d40e 9659  .4..@.@..w.Y...Y
	0x0020:  e909 d2b4 0050 52b1 5e91 62eb 96a8 8010  .....PR.^.b.....
	0x0030:  00e5 e9f1 0000 0101 080a 000a f110 0053  ...............S
	0x0040:  0d68                                     .h
IP 150.89.212.14.53940 > 150.89.233.9.80: Flags [P.], seq 1:159, ack 1, win 229, options [nop,nop,TS val 717072 ecr 5442920], length 158: HTTP: GET /sample.html HTTP/1.1
	0x0000:  cc4e 249c f500 c8cb b82a e679 0800 4500  .N$......*.y..E.
	0x0010:  00d2 af82 4000 4006 a0d8 9659 d40e 9659  ....@.@....Y...Y
	0x0020:  e909 d2b4 0050 52b1 5e91 62eb 96a8 8018  .....PR.^.b.....
	0x0030:  00e5 ea8f 0000 0101 080a 000a f110 0053  ...............S
	0x0040:  0d68 4745 5420 2f73 616d 706c 652e 6874  .hGET./sample.ht
	0x0050:  6d6c 2048 5454 502f 312e 310d 0a55 7365  ml.HTTP/1.1..Use
	0x0060:  722d 4167 656e 743a 2057 6765 742f 312e  r-Agent:.Wget/1.
	0x0070:  3137 2e31 2028 6c69 6e75 782d 676e 7529  17.1.(linux-gnu)
	0x0080:  0d0a 4163 6365 7074 3a20 2a2f 2a0d 0a41  ..Accept:.*/*..A
	0x0090:  6363 6570 742d 456e 636f 6469 6e67 3a20  ccept-Encoding:.
	0x00a0:  6964 656e 7469 7479 0d0a 486f 7374 3a20  identity..Host:.
	0x00b0:  6c36 3035 2d30 392e 6973 2e6f 6974 2e61  l605-09.is.oit.a
	0x00c0:  632e 6a70 0d0a 436f 6e6e 6563 7469 6f6e  c.jp..Connection
	0x00d0:  3a20 4b65 6570 2d41 6c69 7665 0d0a 0d0a  :.Keep-Alive....
IP 150.89.233.9.80 > 150.89.212.14.53940: Flags [.], ack 159, win 235, options [nop,nop,TS val 5442920 ecr 717072], length 0
	0x0000:  c8cb b82a e679 cc4e 249c f500 0800 4500  ...*.y.N$.....E.
	0x0010:  0034 9bc0 4000 3f06 b638 9659 e909 9659  .4..@.?..8.Y...Y
	0x0020:  d40e 0050 d2b4 62eb 96a8 52b1 5f2f 8010  ...P..b...R._/..
	0x0030:  00eb 0eb8 0000 0101 080a 0053 0d68 000a  ...........S.h..
	0x0040:  f110                                     ..
IP 150.89.233.9.80 > 150.89.212.14.53940: Flags [P.], seq 1:288, ack 159, win 235, options [nop,nop,TS val 5442920 ecr 717072], length 287: HTTP: HTTP/1.1 200 OK
	0x0000:  c8cb b82a e679 cc4e 249c f500 0800 4500  ...*.y.N$.....E.
	0x0010:  0153 9bc1 4000 3f06 b518 9659 e909 9659  .S..@.?....Y...Y
	0x0020:  d40e 0050 d2b4 62eb 96a8 52b1 5f2f 8018  ...P..b...R._/..
	0x0030:  00eb 7187 0000 0101 080a 0053 0d68 000a  ..q........S.h..
	0x0040:  f110 4854 5450 2f31 2e31 2032 3030 204f  ..HTTP/1.1.200.O
	0x0050:  4b0d 0a44 6174 653a 2046 7269 2c20 3238  K..Date:.Fri,.28
	0x0060:  2053 6570 2032 3031 3820 3032 3a31 373a  .Sep.2018.02:17:
	0x0070:  3130 2047 4d54 0d0a 5365 7276 6572 3a20  10.GMT..Server:.
	0x0080:  4170 6163 6865 0d0a 4c61 7374 2d4d 6f64  Apache..Last-Mod
	0x0090:  6966 6965 643a 2054 6875 2c20 3237 2053  ified:.Thu,.27.S
	0x00a0:  6570 2032 3031 3820 3233 3a35 393a 3438  ep.2018.23:59:48
	0x00b0:  2047 4d54 0d0a 4554 6167 3a20 2231 342d  .GMT..ETag:."14-
	0x00c0:  3537 3665 3332 3234 3866 3466 3622 0d0a  576e32248f4f6"..
	0x00d0:  4163 6365 7074 2d52 616e 6765 733a 2062  Accept-Ranges:.b
	0x00e0:  7974 6573 0d0a 436f 6e74 656e 742d 4c65  ytes..Content-Le
	0x00f0:  6e67 7468 3a20 3230 0d0a 4b65 6570 2d41  ngth:.20..Keep-A
	0x0100:  6c69 7665 3a20 7469 6d65 6f75 743d 352c  live:.timeout=5,
	0x0110:  206d 6178 3d31 3030 0d0a 436f 6e6e 6563  .max=100..Connec
	0x0120:  7469 6f6e 3a20 4b65 6570 2d41 6c69 7665  tion:.Keep-Alive
	0x0130:  0d0a 436f 6e74 656e 742d 5479 7065 3a20  ..Content-Type:.
	0x0140:  7465 7874 2f68 746d 6c0d 0a0d 0a3c 6874  text/html....<ht
	0x0150:  6d6c 3e73 616d 706c 653c 2f68 746d 6c3e  ml>sample</html>
	0x0160:  0a                                       .
IP 150.89.212.14.53940 > 150.89.233.9.80: Flags [.], ack 288, win 237, options [nop,nop,TS val 717072 ecr 5442920], length 0
	0x0000:  cc4e 249c f500 c8cb b82a e679 0800 4500  .N$......*.y..E.
	0x0010:  0034 af83 4000 4006 a175 9659 d40e 9659  .4..@.@..u.Y...Y
	0x0020:  e909 d2b4 0050 52b1 5f2f 62eb 97c7 8010  .....PR._/b.....
	0x0030:  00ed e9f1 0000 0101 080a 000a f110 0053  ...............S
	0x0040:  0d68                                     .h
IP 150.89.212.14.53940 > 150.89.233.9.80: Flags [F.], seq 159, ack 288, win 237, options [nop,nop,TS val 717072 ecr 5442920], length 0
	0x0000:  cc4e 249c f500 c8cb b82a e679 0800 4500  .N$......*.y..E.
	0x0010:  0034 af84 4000 4006 a174 9659 d40e 9659  .4..@.@..t.Y...Y
	0x0020:  e909 d2b4 0050 52b1 5f2f 62eb 97c7 8011  .....PR._/b.....
	0x0030:  00ed e9f1 0000 0101 080a 000a f110 0053  ...............S
	0x0040:  0d68                                     .h
IP 150.89.233.9.80 > 150.89.212.14.53940: Flags [F.], seq 288, ack 160, win 235, options [nop,nop,TS val 5442922 ecr 717072], length 0
	0x0000:  c8cb b82a e679 cc4e 249c f500 0800 4500  ...*.y.N$.....E.
	0x0010:  0034 9bc2 4000 3f06 b636 9659 e909 9659  .4..@.?..6.Y...Y
	0x0020:  d40e 0050 d2b4 62eb 97c7 52b1 5f30 8011  ...P..b...R._0..
	0x0030:  00eb 0d95 0000 0101 080a 0053 0d6a 000a  ...........S.j..
	0x0040:  f110                                     ..
IP 150.89.212.14.53940 > 150.89.233.9.80: Flags [.], ack 289, win 237, options [nop,nop,TS val 717072 ecr 5442922], length 0
	0x0000:  cc4e 249c f500 c8cb b82a e679 0800 4500  .N$......*.y..E.
	0x0010:  0034 af85 4000 4006 a173 9659 d40e 9659  .4..@.@..s.Y...Y
	0x0020:  e909 d2b4 0050 52b1 5f30 62eb 97c8 8010  .....PR._0b.....
	0x0030:  00ed e9f1 0000 0101 080a 000a f110 0053  ...............S
	0x0040:  0d6a                                     .j
